:020000040800F2
:1000000068180020ED010008F11B000829190008FC
:10001000ED1B00084715000831260008000000000D
:1000200000000000000000000000000005210008A2
:10003000DD17000800000000C1200008F1210008C1
:10004000070200080702000807020008070200086C
:10005000070200080702000807020008070200085C
:10006000070200080702000807020008070200084C
:10007000070200080702000807020008070200083C
:10008000070200080702000807020008070200082C
:10009000070200080702000807020008070200081C
:1000A000070200080702000807020008070200080C
:1000B000070200086522000807020008070200087E
:1000C00007020008070200080702000807020008EC
:1000D0000702000889250008070200080D2600080D
:1000E00007020008070200080702000807020008CC
:1000F00007020008070200080702000807020008BC
:100100000702000807020008D922000807020008B9
:100110000702000807020008070200089D230008E4
:10012000070200080702000807020008070200088B
:1001300000F002F800F04AF80AA090E8000C8244AF
:100140008344AAF10107DA4501D100F03FF8AFF28C
:10015000090EBAE80F0013F0010F18BFFB1A43F0A5
:10016000010318470C7000002C700000103A24BFE7
:1001700078C878C1FAD8520724BF30C830C144BF0C
:1001800004680C607047000000230024002500264E
:10019000103A28BF78C1FBD8520728BF30C148BFEA
:1001A0000B607047662905F08C83642900F0748029
:1001B000002070471FB500F085FC040000200021DE
:1001C00004F0D6FEE0601FBD10B510BD00F092FD3A
:1001D0001146FFF7EFFF04F073F900F0B0FD03B430
:1001E000FFF7F2FF03BC02F040FA00000948804725
:1001F00009480047FEE7FEE7FEE7FEE7FEE7FEE709
:10020000FEE7FEE7FEE7FEE704480549054A064B20
:100210007047000005220008310100086806002030
:100220006818002068080020680800207047000057
:100230000FB4044910B503AA029800F009FC10BCE1
:100240005DF814FB0400002070B504468569006861
:10025000C10601D5302600E02026C00707D070BDBA
:10026000D4E9012130469047206A401C20626D1E6F
:10027000F6D570BD70B5044685690078C00707D112
:1002800070BDD4E9012120209047206A401C2062E3
:100290006D1EF6D570BD00002DE9F0410646002424
:1002A00010687529314616A510D0AFF300800028DC
:1002B00002DA404213A507E031688A0701D512A58A
:1002C00002E0490704D511A5012401E0AFF3008045
:1002D00000210A2206F1240709E0B0FBF2FCB0FB82
:1002E000F2F302FB1C00303078541846491C0028F9
:1002F000F3D123462A463046BDE8F04100F041B92B
:10030000000000002D0000002B0000002000000075
:100310002DE9F05F894604464FF0000ADFF824B16A
:10032000FB44C0F820A02046E168884700287DD023
:10033000252806D0D4E901219047206A401C20627C
:10034000F1E700255F462046E168884720280646F9
:1003500007DB312E05D2B81910F8200C08B105437F
:10036000F1E7A80701D525F00405C4F81CA0002773
:10037000C4F818A02A2E09D0304602F06FF938B31D
:1003800004EB8708303EC8F8186019E059F8041BE0
:10039000204604EB87029161E1688847012F0646F9
:1003A00018D1E069002820DA25F020051DE0D8F8F2
:1003B000180000EB800006EB40003038C8F8180049
:1003C0002046E1688847064602F048F90028EED149
:1003D000012F0AD02E2E08D12046E16888477F1CC5
:1003E0000646022F45F02005C4DBA069002803DA89
:1003F000404245F00105A061E80701D025F0100555
:10040000A6B1A6F14100192802D8203645F40065AE
:100410004A463146204625604D46FFF7C3FE60B18F
:10042000012807D0ED1D25F0070000E007E000F1EE
:10043000080978E705F1040975E730467AE7206A8C
:10044000BDE8F09F626D0000032A40F2308010F09A
:10045000030C00F0158011F8013BBCF1020F62445F
:1004600098BF11F801CB00F8013B38BF11F8013BF0
:10047000A2F1040298BF00F801CB38BF00F8013B9D
:1004800011F0030300F02580083AC0F0088051F80D
:10049000043B083A51F804CBA0E80810F5E7121D18
:1004A0005CBF51F8043B40F8043BAFF30080D20737
:1004B00024BF11F8013B11F801CB48BF11F8012B03
:1004C00024BF00F8013B00F801CB48BF00F8012B26
:1004D000704710B5203AC0F00B80B1E81850203AB0
:1004E000A0E81850B1E81850A0E81850BFF4F5AFD4
:1004F0005FEA027C24BFB1E81850A0E8185044BF5E
:1005000018C918C0BDE810405FEA827C24BF51F8CA
:10051000043B40F8043B08BF7047D20728BF31F8BE
:10052000023B48BF11F8012B28BF20F8023B48BF0F
:1005300000F8012B70474FF000020429C0F0128030
:1005400010F0030C00F09882CCF1040CBCF1020F07
:1005500018BF00F8012BA8BF20F8022BA1EB0C015B
:1005600000F08ABA5FEAC17C24BF00F8012B00F8D2
:10057000012B48BF00F8012B704770477047704748
:1005800070472DE9F0470D4699469246044600F122
:1005900024080168880604D5E06921F01001216073
:1005A00000E00120A84201DD471B00E00027A1690F
:1005B0007A1902EB0900081AA0612078C00602D45B
:1005C0002046FFF741FE002608E0D4E901211AF891
:1005D00006009047206A401C761C20624E45F4DBE2
:1005E0002078C0060AD52046FFF72EFE06E0D4E9A3
:1005F000012130209047206A401C2062381EA7F15C
:100600000107F4DC07E0D4E9012118F80500904760
:10061000206A401C2062281EA5F10105F3DC20465B
:10062000FFF728FE2078000602D50220BDE8F087FB
:100630000120FBE770472DE9FF4F0C461E464FF0A7
:10064000FF378BB0D2E90001DDF860800A908A465E
:10065000C1F30A5505B93D46002108464FF0000098
:10066000BAF1000F00F4400005DA00EB80004FF40F
:10067000400101EA50004FEA9059B9F1010F00DD45
:10068000B9460A9850EA4A000ED044F61050A5F236
:10069000FF3545432F14B8F1000F1ED07542291EB7
:1006A0001EDDC9F100021CE0B8F1010F4FF000009F
:1006B00001D0302103E0F24305E02154401CB04258
:1006C000FBDB30460022002121540B99C1F8088041
:1006D000C1E900200FB0BDE8F08FBD1B6D1CDEE747
:1006E0004A4600DA694206A800F08EFA06AB93E8A3
:1006F000070003AB83E8070050460A9900F068FB47
:100700008DE80700A0F500501F3800900398002DD9
:1007100009DD42F21F014A46084403A903906846D6
:1007200000F0C7FD08E0A0F500504A461F3803A9B5
:100730000390684600F0D1FD8DE807000004000C2E
:1007400003D04FF0FF30410800E01046B8F1000F31
:1007500003D00022009215461EE0751E05D400F05D
:10076000B5F9303262556D1EF9D5B3460122084302
:1007700002D000227F1C04E02078302801D1002222
:100780007F1E002A099786D01DE0112D07DA00F0A0
:100790009DF9303262556D1C50EA0102F5D10843D3
:1007A00002D00098C8B10EE00021681E05E0235C6D
:1007B000625C63542254401E491C8142F7DBAB4605
:1007C000A81B401E0990002004F80B000B98099A02
:1007D000C0F80880C0E9002B7CE711264FF0000824
:1007E00059E72DE9F04F88460446D21D22F0070153
:1007F00091B0D1E90001CDE90A0101F01BFF0246E9
:100800000B98C00F01D02D2007E02068810701D58B
:100810002B2002E0202101EAC000032A099001D028
:10082000072A05DB03464146204600F0ADF90BE1FF
:100830002078800601D5E06900E00620B8F1650F58
:10084000814606D0B8F1660F18D0B8F1670F70D1A5
:1008500031E00020B9F1110F009001DB112301E01C
:1008600009F101030AAA01A90CA8FFF7E4FEDDE9DA
:100870000C70002609F10105834647E001204B4634
:1008800000904FF000470AAA01A90CA8FFF7D3FE79
:10089000DDE90DB00C995D46002610B909F10100A3
:1008A0000D18B9EB050003D4C0F1FF3609F10105BD
:1008B000A5EB09002BE0B9F1010F01DA4FF00109B6
:1008C0000020B9F1110F0090484601DD112300E02E
:1008D00003460AAA01A90CA8FFF7ADFEDDE90C70DA
:1008E0004D4600268346207800070AD4AB4500DA3F
:1008F0005D4601A8012D04DD411911F8011C3029C4
:1009000007D04F4502DA17F1040F04DA01208246BE
:100910000FE06D1EEEE7002F02DCED1B3E4403E00E
:10092000781CA84200DD7D1CB81B00F1010A4FF0C5
:1009300000472078000703D4AA4501DB4FF0FF3AB7
:100940000021B7F1004F0DF143088DF8431024D07A
:1009500002202B23002F01DA7F422D230A21021EC1
:10096000A0F1010000DC5FB197FBF1FC97FBF1F215
:1009700001FB1C7C17460CF1300C08F801CDEEE7AA
:10098000A8F1010003702188090501D5452100E087
:100990006521A0F1010800F8011C09980FA9A1EB3D
:1009A0000807FF1D00B10120411901EBEA70A169A0
:1009B0003844081A401EA0612078C00602D42046A0
:1009C000FFF742FC099828B1D4E901219047206A39
:1009D000401C20622078C00622D52046FFF734FC58
:1009E0001EE0002E04DBB34502DD01A8805D00E0BF
:1009F0003020D4E901219047206A401C2062761CF7
:100A0000AAF101005FEA000A0AD100F05BF8C068B1
:100A10000168405CD4E901219047206A401C2062B3
:100A2000281EA5F10105DCDC07E0D4E9012118F856
:100A3000010B9047206A401C2062381EA7F1010775
:100A4000F3DC2046FFF716FC032011B043E600005C
:100A5000074B70B50D467B4400F083F804462846EA
:100A600000F040F910B14FF0FF3070BD204670BD6E
:100A70007B1D00004FF0000200B5134694469646D9
:100A8000203922BFA0E80C50A0E80C50B1F12001A1
:100A9000BFF4F7AF090728BFA0E80C5048BF0CC04F
:100AA0005DF804EB890028BF40F8042B08BF7047AD
:100AB00048BF20F8022B11F0804F18BF00F8012B1F
:100AC00070470000004870472806002030B5B0F19C
:100AD0000A024FEA900E71F100034EEA817EB0EBFC
:100AE0000E0061EB91014FEA101E4EEA017E10EB01
:100AF0000E0041EB11114FEA102E4EEA016E10EB81
:100B00000E0041EB11214FEA104E4EEA014E10EB60
:100B10000E0041EB1141401841F100014FEAD000B5
:100B200040EA41704FEAD10110EB80054FEA8104A1
:100B300044EA907444EB01046D1944EB0404521B25
:100B4000A3414FF0000348BF0A3200D530BD401C1E
:100B500041F1000130BD000001694A1C02610878C2
:100B6000704700B58FB0CDE90131002105910549ED
:100B70007944CDE9031011466846FFF7C9FB0FB071
:100B800000BD0000E5FFFFFF2DE9F0411F460446D0
:100B900003260168072A01F4006004DB08B116A5EA
:100BA00005E016A503E008B115A500E015A521F0A4
:100BB00010002060A069C01EA0610FB1401EA0619E
:100BC0002046FFF741FB4FB1D4E901213846904759
:100BD000206A401C2062C01C206206E0206AFAE7FE
:100BE000D4E9012115F8010B9047761EF8D2204672
:100BF000FFF740FBBDE8F0814E414E006E616E0094
:100C0000494E4600696E66002DE9F047814616465A
:100C10008AB0334878440DC88DE80D0030487844D8
:100C2000801C03AC0DC884E80D0041F69B300844DD
:100C3000372190FBF1F290FBF1F5A5F1800501FB66
:100C400012041B3C02D56442012000E00020DFF8C2
:100C500090A080460027FA44AAF1BE0A0DE0E00702
:100C600009D03246684607EB47010AEB810100F0E4
:100C700034FB8DE8070064107F1C002CEFD1184F67
:100C80007F44AC3F18E0E80714D007EB04100DF1E7
:100C9000180A90E80E008AE80E00C068F04201D100
:100CA00098190890324606A903A800F016FB03AB7A
:100CB00083E807006D10641C002DE4D132466946BC
:100CC000B8F1000F03A802D000F0F3FA01E000F041
:100CD00004FBC9E90001C9F808200AB0BDE8F087A3
:100CE000FC640000007B00F0800070470048704703
:100CF000080600207546FFF7F9FFAE460500694675
:100D0000534620F00700854618B020B5FFF77CFA5F
:100D1000BDE820404FF000064FF000074FF00008FC
:100D20004FF0000B21F00701AC46ACE8C009ACE87D
:100D3000C009ACE8C009ACE8C0098D46704710B5E1
:100D40000446AFF300802046BDE81040FFF747BAE5
:100D50004FF0013C50F8042B51F8043B9A4221D14A
:100D6000A2EB0C03934313EACC1317D150F8042BD6
:100D700051F8043B9A4215D1A2EB0C03934313EABA
:100D8000CC130BD150F8042B51F8043B9A4209D1F3
:100D9000A2EB0C03934313EACC13DBD04FF000001B
:100DA000704700BFD01A01BAB1FA81F101F0180101
:100DB00022FA01F0CB40C1F12001DBB2C0B2C01A6F
:100DC0002CFA01F3D11A914311EAC311E6D170470D
:100DD0005FEA400C08BF91F0000F4FEA8C234FEA06
:100DE000C12243EA51514FEA1C5018BF00F5F040B0
:100DF0004FEA300018BF41F000415FEA6C5C00F040
:100E00002980BCF1FF3F08BF40F080407047130CC1
:100E100006BF12044FF0100C4FF0000C130E04BF6D
:100E200012020CF1080C130F04BF12010CF1040C98
:100E3000930F04BF92000CF1020CD30F04BF5200B9
:100E40000CF1010C11464FF00002A0F11F00A0EBC5
:100E50000C00704711F0004F08BF704731F000419F
:100E60003FF4D5AF0B0C06BF09044FF0100C4FF048
:100E7000000C0B0E04BF09020CF1080C0B0F04BF91
:100E800009010CF1040C8B0F04BF89000CF1020C5A
:100E9000CB0F04BF49000CF1010CCCF12003A0EBF7
:100EA0000C0022FA03F302FA0CF241EA030100F10A
:100EB0000100704720F07F4C80EA030023F07F4759
:100EC000ACEB070303F57C5300F0004003F1FF0394
:100ED0002DE980494FEA154B09B44FEA144325EA3E
:100EE0000B4E24EA03480FF2042606EB13274908A9
:100EF0003E785FEA320203FB0667C7F5000707FB8F
:100F000006F64FEA54374FEAD64606F1020607FBCB
:100F1000066CCCF1005C4FEA1C472CEA074C07FB3F
:100F200006F40CFB06F504EB15464FEA961634BFA3
:100F300000204FF000404FEAD13706FB07FC4FEA94
:100F40001C4C0CFB0BF7D21B03FB0CF761EB0701EE
:100F50000CFB0EF7B0EB074072EB17420CFB08F7E7
:100F600034BFA2EB0742B2EB074261EB17414FEAF5
:100F70000C444FEA910706FB07FC4FEA1C4C0CFBA4
:100F80000BF7B0EBC74072EB573203FB0CF734BFE3
:100F9000A2EBC742B2EBC74261EB57310CFB0EF735
:100FA000B0EBC70072EB57720CFB08F734BFA2EB33
:100FB000C702B2EBC70261EB5771039F4FEA816131
:100FC00041EA921104EBCC044FEAD1374FEA826236
:100FD00006FB07FC42EA90124FEA80604FEA1C4C85
:100FE0000CFB0BF7D21B03FB0CF761EB07010CFBAF
:100FF0000EF7B0EB074072EB17420CFB08F734BF5B
:10100000A2EB0742B2EB074261EB17414FEA8C5566
:101010004FEA910704EB9C2406FB07FC4FEA1C4CAB
:101020000CFB0BF7B0EBC74072EB573203FB0CF72E
:1010300034BFA2EBC742B2EBC74261EB57310CFBA6
:101040000EF7B0EBC70072EB57720CFB08F734BF1A
:10105000A2EBC702B2EBC70261EB577115EB4C254F
:101060004FEA816141EA92114FEA82624FEAD13739
:1010700042EA901206FB07FC44F100044FEA80604C
:101080004FEA1C4C0CFB0BF7D21B03FB0CF761EB7C
:1010900007010CFB0EF7B0EB074072EB17420CFB9D
:1010A00008F734BFA2EB0742B2EB074261EB1741EE
:1010B00015EB1C154FEA813141EA92414FEA823229
:1010C00042EA90424FEA80304FEA0C7644F1000445
:1010D00048EA03434EEA0B484FF0000EB2EB080C0F
:1010E00071EB030724BF624639464EEB0E0E4FF0FC
:1010F000000B0018524149414BEB0B0BB2EB080CB3
:1011000071EB03077BF1000B24BF624639464EEBBF
:101110000E0E4FF0000B0018524149414BEB0B0BE8
:10112000B2EB080C71EB03077BF1000B24BF6246A6
:1011300039464EEB0E0E51EA020718BF46F0010683
:1011400016EB0E7655F1000254F1000103D5BDE80F
:101150008901BDE80088BDE88901BDE80048B619ED
:10116000524141EB0101A3F10103704780807F7E72
:101170007D7C7B7A7978777676757473727171700D
:101180006F6E6E6D6C6C6B6A6A69686867666665BF
:101190006464636362616160605F5F5E5E5D5D5C4D
:1011A0005C5B5B5A5A5959585857575656555555BE
:1011B0005454535352525251515050504F4F4F4E1E
:1011C0004E4D4D4D4C4C4C4B4B4B4A4A4A4949496C
:1011D00048484847474747464646454545444444AE
:1011E000444343434342424242414141002B26D4BF
:1011F000770021D01CB54FEA370703B44FF0100039
:101200004FF010014FF000000FBCBDE810400BF193
:10121000010BBBF1010F08BF5FEA170722BF12F1F4
:10122000010211F101014FF0004143F1000300F010
:10123000004043EA00007047F9D35708DAE746EA6E
:10124000064613F1400F4FEA16461FDD13F1200F3B
:10125000DFBF16430A46002120335B42C8D0C3F1EA
:10126000200746EA064602FA07F74FEA164646EA1C
:101270000706C3F1200722FA03F201FA07F721FA61
:1012800003F14FF0000342EA0702B1E746EA020623
:1012900046EA06464FEA164646EA0106BCBF46EA5B
:1012A0000646360C4FF000034FF000024FF00001ED
:1012B0009EE72DE9C048934630B491E8380007C84E
:1012C00031EA400C48BF34EA430C03D5FFF7F2FD86
:1012D000FFF78CFFF0BCBDE800882DE9C0489346BD
:1012E00030B491E8380007C810F0804F08BF13F001
:1012F000804F03D100F005F8FFF778FFF0BCBDE8A0
:10130000008820F07F4780EA030023F07F4C07EB42
:101310000C03A3F57C5300F00040A3F1FE0392F010
:10132000000F00F0B38095F0000F00F077802DE9FA
:1013300001494FEA11404FEA144621EA004800FBF8
:1013400006FC24EA064708FB06F607FB08F800FB44
:1013500007F718EB06484CEB164C4FEA124B18EB0C
:1013600007484FEA15464CEB174022EA0B4E0BFBA1
:1013700006FC25EA06470EFB06F607FB0EFE0BFBF6
:1013800007F71EEB064E4CEB164C4FF000061EEB1B
:10139000074E4CEB174B18EB0B0840F1000018EB15
:1013A0000E0B58EB000840F100008F1A4FF00001BF
:1013B0003CBFC943661B14BFB5EB040C00213CBF06
:1013C000C943F61B4FEA17444EEA8E0E27EA04453E
:1013D0004FEA1C4704FB07622CEA074C05FB07F7A2
:1013E0000CFB05F604FB0CFC16EB074642EB174220
:1013F00016EB0C4642EB1C421BEB060658EB0202B6
:10140000414146EA9E0601D5BDE80189B61952411F
:1014100041EB0101A3F10103BDE801894FEA144545
:101420004FEA114724EA054621EA074C05FB07F479
:1014300006FB07F70CFB06F105FB0CFC11EB074163
:1014400044EB17444FEA124711EB0C4144EB1C44A8
:1014500022EA074C05FB07F206FB07F70CFB06F632
:1014600005FB0CFC16EB074642EB174216EB0C464D
:1014700042EB1C456A1854F1000148BF7047B61989
:10148000524141EB0101A3F10103704795F0000FB8
:1014900037D04FEA11424FEA144721EA024624EAC4
:1014A000074C02FB07F106FB07F70CFB06F402FBF7
:1014B0000CFC14EB074441EB17414FEA154714EBC2
:1014C0000C4441EB1C4125EA074C02FB07F506FBE7
:1014D00007F70CFB06F602FB0CFC16EB074645EB88
:1014E000174516EB0C4645EB1C42121951F1000151
:1014F00048BF7047B619524141EB0101A3F1010306
:1015000070474FEA14454FEA114724EA054621EA9D
:10151000074C05FB07F106FB07F70CFB06F24FF043
:10152000000605FB0CFC12EB074241EB174112EBE6
:101530000C4251EB1C4148BF7047921841EB01012E
:10154000A3F10103704700BFFEE7000010B50024BF
:101550001548406820F470401349486008464068C8
:1015600040F40040486004E0601CC4B2012001F077
:1015700013F90E48006808B1C82CF5DBC82C01DB54
:10158000012010BD002404E0601CC4B2012001F061
:1015900003F90648006808B9F02CF5DBF02C01DBF4
:1015A0000120EEE70020ECE7002001402C0124425E
:1015B0002DE9F84F00F0CCF800F0A8F8FFF7C6FFCF
:1015C000CC2000F0D1F8BE2000F0CEF800F08CF86E
:1015D000834600F089F80446072C08DDE043C4B2D6
:1015E0006FEA0B0000F0FF0B4FF0000A01E04FF034
:1015F000010AA1464FEA09200FFA80F909EB0B0016
:101600000FFA80F9484603F0E5FF009003F072FE00
:1016100007460022084B03F039FD054603F0CAFCDB
:101620000FFA80F9BAF1000F02D04846BDE8F88FF2
:10163000C9F1000000B2F9E70000E43F08B501215C
:10164000080200F04FFD4FF40060ADF800001020DC
:101650008DF8030003208DF802006946064800F06B
:10166000BEF84FF40061044800F046F900F04EF86F
:10167000FFF76CFF08BD00000020014010B51748BF
:10168000406820F47040154948600846406840F4BE
:1016900040504860002012490860022001F07CF8A8
:1016A00001201049C1F8AC010C48406820F470409A
:1016B0000A4948600846406840F4004048600C20F1
:1016C00001F06AF806488038006808B1012400E09B
:1016D0000024322001F060F8204610BD00200140B7
:1016E000AC0124420000244270B50026012508E028
:1016F000FFF7C4FF0446E00140EA6600C6B2681C7A
:10170000C5B2082DF4DD304670BD000010B50D489F
:10171000406820F470400B4948600846406840F437
:101720004050486000200849086040F2EE2001F077
:1017300033F801200549C1F8AC010F2001F02CF865
:1017400010BD000000200140AC01244200002442F2
:1017500010B5FFF7DBFFFFF7F9FECC2000F004F82F
:10176000442000F001F810BD70B5044618484068E8
:1017700020F47040164948600846406840F44050E4
:101780004860012520E004F0010664106EB10020DD
:1017900010490860022000F0FFFF01200E49C1F847
:1017A000AC013C2000F0F8FF0CE000200949086083
:1017B0003C2000F0F1FF01200749C1F8AC010220F4
:1017C00000F0EAFF681CC5B2082DDCDD70BD00002A
:1017D00000200140AC0124420000244270472DE962
:1017E000F0410246002500260020002300240027A7
:1017F00091F803C00CF00F0591F803C00CF0100C29
:10180000BCF1000F03D091F802C04CEA050591F835
:1018100000C0BCF1000F31D0146800202BE04FF065
:10182000010C0CFA00F3B1F800C00CEA03069E426A
:1018300020D183004FF00F0C0CFA03F7BC4305FADC
:1018400003FC4CEA040491F803C0BCF1280F06D154
:101850004FF0010C0CFA00FCC2F814C00AE091F839
:1018600003C0BCF1480F05D14FF0010C0CFA00FC8D
:10187000C2F810C0401C0828D1D31460B1F800C0D1
:10188000BCF1FF0F34DD546800202EE000F1080C9D
:101890004FF0010808FA0CF3B1F800C00CEA030697
:1018A0009E4221D183004FF00F0C0CFA03F7BC438A
:1018B00005FA03FC4CEA040491F803C0BCF1280FBC
:1018C00005D100F1080C08FA0CF8C2F8148091F860
:1018D00003C0BCF1480F07D100F1080C4FF001081C
:1018E00008FA0CF8C2F81080401C0828CED35460C7
:1018F000BDE8F081416170470161704710B541F664
:101900001F41092000F0C0FC4FF41651242003F0C1
:10191000E9FA0448002101604160017202F0A4FC70
:1019200010BD00002C00002000BFFEE772B670471B
:101930001548806940F004001349886108468069B1
:1019400040F0400088611148006820F00F000F4906
:1019500008600846006840F0080008600C4800680D
:101960000C4908400A490860084600680A490843CB
:101970000749086006480C30006840F01C00044924
:101980000C31086070470000001002400008014060
:1019900000180140FF00F0FF0088080010B5044661
:1019A00014B10120234908702248007858B3224816
:1019B000006858B12048001F006838B11E48083838
:1019C000006818B11D48006801281CD10A2000F0E9
:1019D000C5FE0020174908701748006808B90120A3
:1019E00010BD1548001F006808B90220F8E712482A
:1019F0000838006808B90320F2E710480068012899
:101A000015D10420ECE70C48006801280FD10A48E2
:101A1000001F006801280AD107480838006801281B
:101A200005D10648006810B901200249087000205D
:101A3000D6E700000A0000201001234200012142E5
:101A400010B50020FFF7AAFF0446022C02D0042C98
:101A50001ED10EE00FA0FEF7EBFB022002F018FCF7
:101A60000C2313A200214E2000F0D8FA00F0E0F978
:101A70000EE011A0FEF7DCFB002002F009FC0C23B5
:101A800014A200214E2000F0C9FA00F0D1F900BFE5
:101A900000BF10BD57494649BDF8C8EB4169724CBB
:101AA000696E6BC1ACBDD3C4A3CABD0D0A000000F2
:101AB0004169724C696E6B0057494649B8B4CEBB58
:101AC000A3ACC7EBD6D8D0C2C5E4D6C3C1ACBDD396
:101AD0000D0A0000524553455420200018488069E3
:101AE00040F00800164988610846806940F04000CF
:101AF00088611448006820F47000124908600846A4
:101B0000006840F4401008600E480C30006840F057
:101B100020000C490C3108600B48006820F470006C
:101B2000094908600846006840F44010086006480B
:101B30000C30006840F0200003490C310860704709
:101B400000100240000C0140001801402DE9F04156
:101B50000746884614461D46284600F033F8C5F16E
:101B6000040007FA00F60F20284100EA08000643A7
:101B700006F00F06E21704EBD2625211920002F156
:101B8000E022D2F800212146E31704EBD3635B1176
:101B9000A4EB431C012303FA0CF31A432046E3177A
:101BA00004EBD3635B119B0003F1E023C3F8002136
:101BB0000348005D40EA061001490855BDE8F08180
:101BC00000E400E00146072323EA01021202054B6C
:101BD00018684FF6FF031840034B18431043014B9E
:101BE000186070470CED00E00000FA0500BFFEE74A
:101BF0007047000030B500240CE0002506E000200E
:101C0000074901EBC5010855681CC5B2802DF6DBFC
:101C1000601CC4B2082CF0DB00F00AF930BD0000F3
:101C2000FD000020F0B5144600267F2801DC3F2986
:101C300000DDF0BD0B46CF1701EB5777FF10C7F162
:101C40000707FAB2CF1701EB5777FF10A1EBC707D1
:101C5000FDB2C5F107070123BB40DEB24CB10A4B10
:101C600003EBC0039B5C3343074F07EBC007BB5438
:101C700008E0054B03EBC0039B5CB343024F07EB4B
:101C8000C007BB5400BFD4E7FD00002010B55D487D
:101C9000806940F010005B4988610846806940F027
:101CA000200088610846806940F480708861564849
:101CB000006856490840544908600846006854497D
:101CC00008435149086050480C30006840F0080053
:101CD0004D490C3108600846006840F0400008603B
:101CE0004FF033304B4908600846C06840F0FF00B1
:101CF000C86049484068C0F3130047494860084637
:101D0000406846490843444948600846C06840F472
:101D10006040C8600120424908604249C1F88C0116
:101D2000002041490860642000F018FD01203F496F
:101D3000C1F8BC010021AE2000F0A0F90021D5209F
:101D400000F09CF90021502000F098F90021A82013
:101D500000F094F900213F2000F090F90021D320F9
:101D600000F08CF90021084600F088F9002140209D
:101D700000F084F900218D2000F080F9002114206A
:101D800000F07CF90021202000F078F900210220E9
:101D900000F074F90021A12000F070F90021C020AA
:101DA00000F06CF90021DA2000F068F9002112201F
:101DB00000F064F90021812000F060F90021EF209B
:101DC00000F05CF90021D92000F058F90021F12041
:101DD00000F054F90021DB2000F050F90021302000
:101DE00000F04CF90021A42000F048F90021A620C1
:101DF00000F044F90021AF2000F040F9FFF7FAFEAF
:101E000010BD00000010024000140140FF0FFFF061
:101E1000003000030010014000200140000030337A
:101E20009881224200802242BC01244200002442C8
:101E300030B500241CE004F1B001C8B2002100F06C
:101E40001DF90021084600F019F90021102000F0CA
:101E500015F9002508E0084901EBC501085D0121DD
:101E600000F00CF9681CC5B2802DF4DB601CC4B214
:101E7000082CE0DB30BD0000FD0000202DE9F84F0C
:101E800080460F4616461C46BA462046E31704EB2A
:101E90005373DB1021464FEAE47C04EB5C7C4FEA91
:101EA000EC0CA4EBCC0CBCF1000F02D04FF0010CF9
:101EB00001E04FF0000C6344224604EBD27C4FEA71
:101EC0006C0C03FB0CF303F0FF0BA6F12000C6B271
:101ED00000254EE00C2C07D106EB4600274901EB0C
:101EE0008000405D009013E0102C05D1244800EBE9
:101EF0000610405D00900BE0182C07D106EBC600E1
:101F0000204901EB8000405D009001E0BDE8F88FC2
:101F10004FF0000927E0009800F0800028B1394612
:101F200040460A9AFFF77EFE09E00A9808B90120A8
:101F300000E00020024639464046FFF773FE009855
:101F40004006000E0090781CC7B2A7EB0A00A04222
:101F500005D1574608F1010000F0FF0806E009F13D
:101F6000010000F0FF09B9F1080FD4DB00BF681CC5
:101F7000C5B25D45AEDB00BFC8E70000C65800082B
:101F80003A5D00082A6300082DE9FF4F81B007463B
:101F900091461E460E9D4FF0000A002439E0301B8A
:101FA000401EC1B20A2002F0DDFBB9FBF0F00A21AD
:101FB000B0FBF1F201FB1208BAF1000F16D1701E4E
:101FC000A04213DDB8F1000F0ED10120AB4605EBA6
:101FD000DB71491001FB04710090C8B22B4620222E
:101FE0000299FFF74BFF12E04FF0010A0120AB46C8
:101FF00005EBDB71491001FB04710090C8B208F1D8
:102000003001CAB22B460299FFF738FF00BF601CAF
:10201000C4B2B442C3DB05B0BDE8F08FF8B50646E4
:102020000F4615461C4621E004EBD4714910C1F15E
:102030008001B14202DA00263819C7B2C4F140006B
:10204000B84204DA002006460746FFF7D3FD012018
:1020500000902A78234639463046FFF70FFF204686
:1020600004EBD07106EB6101CEB26D1C28787E289E
:1020700002DC28782028D7DAF8BD00000C4AD268A4
:1020800002F47F42C3B21A43094BDA60094A116075
:102090000022094BC3F89821084B1A6001221A60EC
:1020A000044B0C331A60044BC3F88C2170470000BA
:1020B000001001408C81224200802242B80124425B
:1020C0007047000029B1064AD2690243044BDA6125
:1020D00004E0034AD2698243014BDA617047000091
:1020E0000010024029B1064A92690243044B9A61EA
:1020F00004E0034A92698243014B9A6170470000F1
:1021000000100240704710B500F002F810BD00004A
:102110000CB50020019000903348006840F48030F6
:102120003149086000BF3048006800F4003000907A
:102130000198401C0190009818B90198B0F5A06F63
:10214000F1D12948006800F4003010B1012000905E
:1021500001E0002000900098012843D12348006846
:1021600040F01000214908600846006820F0030094
:1021700008600846006840F0020008601A4840689D
:10218000194948600846406848600846406840F47D
:10219000806048600846406820F47C10486008462B
:1021A000406840F4E81048600846006840F08070DD
:1021B000086000BF0C48006800F000700028F9D0EB
:1021C0000948406820F00300074948600846406815
:1021D00040F00200486000BF0348406800F00C0077
:1021E0000828F9D10CBD0000001002400020024078
:1021F0007047000001480249086070470400FA0572
:102200000CED00E010B51348006840F001001149E2
:10221000086008464068104908400E494860084672
:1022200000680E4908400B4908600846006820F421
:10223000802008600846406820F4FE0048604FF4A3
:102240001F008860FFF75FFF4FF0006004490860DF
:1022500010BD0000001002400000FFF8FFFFF6FE76
:1022600008ED00E010B50748008800F0010008B153
:1022700001F072FD0348008820F001000149088048
:1022800010BD00001004004070B505460C46104813
:10229000C06940F002000E49C8610E480580001F69
:1022A00004800C482038008840F00100094920399A
:1022B000088008482C38008840F0010005492C3976
:1022C000088002231D2200210120FFF73FFC70BD82
:1022D000001002402C0400402D4908882D4909783F
:1022E00001F0800100294ED100F00101D1B129494E
:1022F000097801F04001A9B12649097801F03F01B0
:102300003F290AD12349097841F08001214A1170FF
:102310004FF6FF71204A118004E01E490978491CDC
:102320001C4A117000F0020169B31A49097801F0E2
:10233000400199B11749097841F08001154A11709F
:10234000134924310988144A118011491031098830
:1023500021F002010E4A1032118014E000210D4AD2
:1023600011700D4A11800B49097841F04001094A6A
:1023700011700021064A14321180111F098841F0A2
:102380000201121F11800021014A118070470000D4
:10239000100C00400C0000200E00002010B50121A0
:1023A000084800F023F801280BD10121054800F06E
:1023B0000EF800F05DF900F0AFF902F027FC02F032
:1023C000F5FC10BD00140040CA4302827047CA43A6
:1023D0000282704721B1028842F00102028004E0CB
:1023E00002884FF6FE731A400280704730B50246ED
:1023F000002000230024158A05EA0103958905EAD7
:10240000010413B10CB1012000E0002030BD1AB16D
:1024100083890B43838102E083898B4383817047E7
:1024200070B5002400220023058C4FF6EF7635406E
:102430000584028C8388048B48F6FF752C404FF688
:10244000FF452C400D884FF6FF7606EA05252C4304
:102450004FF6DF752A400D8906EA05152A434D8897
:1024600006EA05152A43154DA84202D0144DA8428C
:102470001DD14FF67F752A404D894FF6FF7606EA4B
:1024800005152A434FF6BF752A408D8806EA0515C3
:102490002A434FF6FF352B404FF2FF752B408D89B5
:1024A00006EA85052B43CD8906EA85052B43838003
:1024B0000483CD880587028470BD0000002C014094
:1024C000003401400A460021018B4FF2FF7319408E
:1024D0004FF6FF7303EA0223194301837047018714
:1024E00070470000002202881D4B98420ED01D4B01
:1024F00098420BD0B0F1804F08D01B4B984205D0CA
:102500001A4B984202D01A4B984204D14FF68F735F
:102510001A404B881A43174B984207D0164B9842E3
:1025200004D04FF6FF431A40CB881A4302808B88B1
:1025300083850B8803850A4B98420BD0094B984240
:1025400008D00E4B984205D00D4B984202D00D4B4F
:10255000984201D10B7A03860123838270470000E1
:10256000002C0140003401400004004000080040FD
:10257000000C0040001000400014004000400140EA
:1025800000440140004801401D49098801F0200134
:1025900011B31B49091D0988C8B21A49098801F4F9
:1025A0000041C9B91749098801F4804161B10A287D
:1025B00003D00021134A118020E01249098841F418
:1025C0000041104A118019E00D2806D10D490988F3
:1025D00041F480410B4A118010E00A490988C1F397
:1025E0000D01094A505407490988491C054A1180C0
:1025F00011460988C72901DD0021118070470000BC
:1026000000380140080000203500002008B50748C8
:10261000008800F0200040B10448001D0088C0B2CE
:1026200000900121684601F0F1FA08BD0048004021
:1026300000BFFEE7490050EAC12018BF04204A0D40
:1026400018BF40F0010040F2FF72B2EB515F08BFCB
:1026500040F00200012808BF0520704730380A28E2
:1026600001D2012070470020704700BF7047000072
:1026700070B52449886802F0ADFF044621494868D6
:1026800002F0A8FF0546214603F0A6F81E4908609F
:102690000A465168106803F09FF81B498860084695
:1026A000006848600A469168184A906802F0BEFFC8
:1026B0000446154A1168154A106802F0B7FF05462E
:1026C000214602F043FE124908600846006802F005
:1026D00011FE044600220F4B02F0D6FD03D24FF04C
:1026E0007E500B4908600A48006802F003FE044669
:1026F0000022134602F08EFC02D800200449086034
:1027000070BD0000300500201805002000050020E5
:10271000180000200000F03F704700004FF0E0215B
:10272000096921F004014FF0E0221161C21700EBAA
:102730005272C2F3C702074B1A701946097801EBAF
:102740004102C2EBC1114FF6FF7202EAC101024A17
:1027500011807047000000200200002001460D4A51
:1027600012884A434FF0E0235A6100229A61012205
:102770001A6100BF4FF0E022106900F001021AB1A7
:1027800000F48032002AF5D000224FF0E0231A61D5
:102790009A6170470200002001460D4A12784A43B0
:1027A0004FF0E0235A6100229A6101221A6100BFB2
:1027B0004FF0E022106900F001021AB100F48032FB
:1027C000002AF5D000224FF0E0231A619A61704789
:1027D0000000002000BF054A128802F04002002AD3
:1027E000F9D0C2B2014B1B1D1A807047003801405E
:1027F000024612B102F0070028B9082901D80020CA
:1028000070470120FCE702F00700C0F10800884291
:1028100001D30020F4E70120F2E700002DE9F041A8
:1028200004460E4600250027A8462CB90BA0FDF74C
:10283000FFFC681EBDE8F08100250AE0675D701BA3
:10284000401E14F8008004F80580701B401E2754B9
:102850006D1CB5EB560FF1D30020EBE767697A42A8
:102860007974654F7264657245786368616E6765F7
:10287000204572726F72202C20496C6C6567616C08
:1028800020506172616D0A0070B504460D46002645
:1028900004B12DB918A0FDF7CBFC4FF0FF3070BD8F
:1028A00028782178884203D01DA0FDF7C1FC0126BD
:1028B000D5F80100D4F80110884203D01FA0FDF71D
:1028C000B7FC0126D5F80500D4F80510884210D0D1
:1028D00000F038FA1F490968401A41F270718842C5
:1028E00007D31DA0FDF7A4FC00F02CFA19490860DD
:1028F00001263046D3E7000067697A436865636B59
:102900005265706F7274204572726F72202C20496C
:102910006C6C6567616C20506172616D0A0000002B
:1029200076616C75654465766963654F6E4F666662
:10293000204368616E6765640A00000076616C750B
:102940006554656D70536574204368616E67656496
:102950000A0000002000002076616C756554656DEA
:10296000704E6F77204368616E6765640A000000EF
:102970002DE9F05F05460E4690461C460A9F4FF033
:10298000000AD346D14634B91BA0FDF751FC4FF0E5
:10299000FF30BDE8F09F41463046FFF729FF8146F2
:1029A000B9F1000F07D1605D06F0070107FA01F1E8
:1029B000084360551EE0B9F1010F1BD1F8B206F0D3
:1029C0000701C1F1080140FA01FA06F00700C0F161
:1029D0000801FF20084100EA070B681C205C40EA60
:1029E0000A00691C6054605D06F007010BFA01F1F2
:1029F000084360550020CCE767697A436F6D7072B9
:102A000065737356616C7565204572726F72202C08
:102A100020496C6C6567616C20506172616D0A00C1
:102A2000F8B505460C4616460DB104B12EB919A0ED
:102A3000FDF7FEFB4FF0FF30F8BD287800F00100F5
:102A400098B110212278601C81542078401C20709D
:102A500001206B1C024600210090084600F072F82D
:102A600008B1012000E0002030702878C0F3400059
:102A700068B111212278601C81542078401C20709C
:102A8000AA780021012001F06FF9C6F801000020AA
:102A9000D2E7000067697A44617461506F696E74AF
:102AA000324576656E74204572726F72202C204913
:102AB0006C6C6567616C20506172616D0A0000008A
:102AC00038B505460C4605B12CB912A0FDF7B0FB90
:102AD0004FF0FF3038BD00202070287823460122B7
:102AE000002100900846FFF743FF01212046FFF731
:102AF00095FED5F801200021012001F03BF960701E
:102B0000D5F805200021012001F034F9A070002043
:102B1000E0E7000067697A44617461506F696E7420
:102B200073325265706F72744461746120457272C1
:102B30006F72202C20496C6C6567616C205061724B
:102B4000616D0A002DE9FC5F05460C461646994664
:102B50000C9F4FF0000AD346002001908046B9F147
:102B6000000F00D037B92AA0FDF762FB4FF0FF300D
:102B7000BDE8FC9F3A4649466846FDF765FC012FD3
:102B80000CD939466846FFF749FEB0F1FF3F05D141
:102B90002BA0FDF74DFB4FF0FF30E9E73146204613
:102BA000FFF726FE8246BAF1000F0CD11DF8050092
:102BB00004F007010841C6F10802FF211141084055
:102BC00040EA080821E0BAF1010F1ED1681C1DF887
:102BD000000004F00701C1F10801711AC1F10802F7
:102BE000FF21114100EA010B1DF8050004F0070167
:102BF0000841019004F00700C0F108010BFA01F050
:102C000040EA0808019848EA00084046B0E700009A
:102C100067697A4465636F6D7072657373696F6E0F
:102C200056616C7565204572726F72202C20496C5C
:102C30006C6567616C20506172616D0A0000000074
:102C400067697A4465636F6D7072657373696F6EDF
:102C500056616C75652067697A427974654F726454
:102C6000657245786368616E6765204572726F7240
:102C7000200A000010B504461D492046FFF704FE57
:102C8000012815D11BA0FDF7D3FA194909312046B7
:102C9000FFF716FF28B9032215490931042000F077
:102CA000F1FF13482168016061684160217A017277
:102CB00000F048F81549B0FBF1F201FB1200A8B989
:102CC00013A0FDF7B5FA0A4909312046FFF7F8FECF
:102CD00028B9032206490931042000F0D3FF044833
:102CE0002168016061684160217A017210BD0000B5
:102CF000C10500206368616E6765642C2072657091
:102D00006F727420646174610A000000C0270900BA
:102D1000496E666F3A2036303053207265706F729C
:102D20007420646174610A000146080601F47F4260
:102D300040EA022001F47F0240EA122040EA1160DA
:102D40007047000001480068704700001C00002028
:102D500010B5174890F82600012828D1144890F89B
:102D6000250002281EDAFFF7EDFF1149D1F83710D0
:102D7000401AB0F5FA6F1AD9FFF7E4FF04460C4881
:102D800090F82530D0F8372021460AA0FDF750FAF8
:102D900000F070FE064890F82500401C044981F8B8
:102DA000250004E0162102482530FDF7C4FB10BDC4
:102DB000440500205761726E696E673A67697A5000
:102DC000726F746F636F6C526573656E6444617487
:102DD000612025642025642025640A003EB5044650
:102DE000002524B913A0FDF723FA681E3EBD206814
:102DF0000090606801909DF80400401CC0B28DF8FE
:102E00000400052000F090F8ADF8020009216846A2
:102E100000F070FE8DF808000921684601F0C8FF37
:102E20000546002D03DA29460DA0FDF701FA2846D4
:102E3000DCE700004552524F523A2067697A5072DF
:102E40006F746F636F6C436F6D6D6F6E41636B205A
:102E50006461746120697320656D707479200A0063
:102E60004552524F523A20756172742077726974DC
:102E700065206572726F72202564200A00000000D0
:102E8000FEB504460E46002524B914A0FDF7D0F97E
:102E9000681EFEBD684600F0E7F912208DF80400B8
:102EA00060798DF80500062000F03EF8ADF80200CC
:102EB0008DF808600A21684600F01CFE8DF80900B4
:102EC0000A21684601F074FF0546002D03DA294601
:102ED0000DA0FDF7ADF92846DBE7000067697A50E1
:102EE000726F746F636F6C4572726F72436D6420A2
:102EF0004572726F72202C20496C6C6567616C2082
:102F0000506172616D0A00004552524F523A20756D
:102F1000617274207772697465206572726F7220B5
:102F20002564200A0000000001B581B0694601AAAD
:102F30005078087010784870BDF800000CBD000093
:102F400030B59DB0044600252CB92BA0FDF770F9D3
:102F5000681E1DB030BD684600F086F902208DF86D
:102F6000040060798DF805002FA103C9CDE90201A5
:102F700030A103C9CDE9040131A103C9CDE908019C
:102F800032A103C9CDE90601202233A10AA8FDF729
:102F9000A0FA202239A10DF15200FDF755FA0020C8
:102FA000CDF84A00CDF84E009DF851008DF8510043
:102FB0009DF8510040F002018DF851100020FFF7FC
:102FC000B3FFADF848006F20FFF7AEFFADF8020089
:102FD0007321684600F08EFD8DF8720073216846FB
:102FE00001F0E6FE0546002D03DA29462CA0FDF788
:102FF0001FF92846ADE7000067697A50726F746F59
:10300000636F6C476574446576696365496E666F86
:10301000204572726F72202C20496C6C6567616C60
:1030200020506172616D0A00303030303030303401
:10303000000000003030303030303032000000000E
:103040003033303130313031000000003033303136
:103050003031303000000000656236623261356226
:10306000373939623431383062616236316538342B
:1030700037626665303335660000000032616533C3
:103080006662663364616536343062393862396647
:1030900063333161353465353463653700000000D2
:1030A0004552524F523A207561727420777269749A
:1030B00065206572726F72202564200A000000008E
:1030C0002DE9FE4F80460E4617464FF0000B0020BC
:1030D000029081468246002534460090B8F1000FE8
:1030E00001D006B137B950A0FDF7A2F84FF0FF307C
:1030F000BDE8FE8F404601F00FFC00F0FF0ABAF178
:10310000000F02D14FF0FF30F2E74FF000095DE011
:10311000012201A9404601F083FC8346BBF1000F68
:1031200052D04D480078FF281FD19DF80400FF2899
:103130001BD14A48007848B9FF20207060700220F7
:103140004749088001204549087034E04448008818
:10315000042830DD42480088A8422CD0FF2020708F
:10316000607002203E49088025E03B480078FF2837
:1031700003D19DF8040055281DD038480078012857
:1031800019D19DF8040036490988605434480088F4
:10319000401C334908800846008804280BDD009451
:1031A000009C6088FFF7C0FE001D85B22C48008897
:1031B000A84200D10CE09DF8040027490870294876
:1031C0000078401C2749087009F10109D1459FDBAF
:1031D00000BF23480088042823DD21480088A84236
:1031E0001FD11F480188204600F084FC02901C4833
:1031F0000088401E215C029881420FD12A46214658
:103200003046FDF721F93D8000201449087014492B
:103210000880144908701049087069E76FF00100D0
:1032200066E7012064E7000067697A50726F746F87
:10323000636F6C4765744F6E655061636B65742096
:103240004572726F72202C20496C6C6567616C202E
:10325000506172616D0A00002800002024000020E7
:10326000260000202900002010B504462CB907A034
:10327000FCF7DEFF4FF0FF3010BD002020606060E3
:10328000FF20207060700020F6E700004552524F8A
:10329000523A2067697A50726F746F636F6C486539
:1032A0006164496E69742068656164206973206592
:1032B0006D707479200A00002DE9F04788B004464B
:1032C000884616460027BA46B946254614B1B8F1D5
:1032D000000F07D12BA0FCF7ABFF4FF0FF3008B079
:1032E000BDE8F087D6B901A8FFF7BEFF2079401CE2
:1032F000C0B28DF8080060798DF809000520FFF74D
:1033000013FEADF80600092101A800F0F3FB8DF8CB
:103310000C000DF1040A4FF0090925E004A8FFF79D
:10332000A3FF2879401CC0B28DF8140068798DF88D
:103330001500B11D88B2FFF7F7FDADF81200287A2D
:10334000401CC0B28DF81800324641460DF11900FC
:10335000FDF77AF80D2104A800F0CCFB8DF81C00D5
:103360000DF1100A4FF00D094946504601F020FDBD
:103370000746002F04DA4A4639460E48FCF758FF44
:103380003846ACE767697A50726F746F636F6C4947
:1033900073737565644461746141636B2045727237
:1033A0006F72202C20496C6C6567616C20506172D3
:1033B000616D0A002C7100082DE9F04704460E46A5
:1033C00017461D46A0464FF0000998F808900CB12A
:1033D00007B135B92FA0FCF72BFF4FF0FF30BDE848
:1033E000F08713213748FDF7A6F8B9F1010F06D091
:1033F000B9F1020F12D0B9F1050F46D122E0314ADE
:103400003932304904F10900FFF70AFB01202D4948
:103410003B39087000270020286037E029494B31EC
:10342000A1F10900FFF74CFB40B926484530C1889F
:103430003980007AB8700320286002E04FF0FF3036
:10344000CDE723E0A6F10A0204F109011D482C385A
:10345000FCF7FAFFA6F10A001A493B39C1F81D0032
:103460000F2118483B3890F83B203C3081543C38C1
:1034700090F83B00401C13493B3981F83B00032086
:10348000087000270020286000E000BF00BF002077
:10349000A5E7000067697A50726F746F636F6C49BB
:1034A000737375656450726F6365737320457272D0
:1034B0006F72202C20496C6C6567616C20506172C2
:1034C000616D0A007F05002010B504462CB9CAA022
:1034D000FCF7AEFE4FF0FF3010BD2089FFF724FD52
:1034E0002081D1480078C0F38000217AC1F38001A7
:1034F000884256D0207AC0F38000002829D0207A54
:1035000000F0010078B10021C84890F84E204F30FB
:1035100081544F3890F84E00401CC44981F84E0049
:10352000C3A0FCF785FE207AC0F34000002838D005
:103530000121BE4890F84E204F3081544F3890F80A
:103540004E00401CB94981F84E00C1A0FCF770FE46
:1035500027E0207A00F0010078B10021B34890F80C
:103560004E204F3081544F3890F84E00401CAF49E8
:1035700081F84E00AEA0FCF75BFE207AC0F340005D
:1035800078B10221A94890F84E204F3081544F382D
:1035900090F84E00401CA54981F84E00B3A0FCF7FE
:1035A00047FEA1480078C0F3C000217AC1F3C001F2
:1035B00088422CD0207AC1089B48008861F3C30060
:1035C00099490880207AC0F3C00080B10321974850
:1035D00090F84E204F3081544F3890F84E00401CE8
:1035E000924981F84E00A8A0FCF722FE0FE00421CA
:1035F0008E4890F84E204F3081544F3890F84E004E
:10360000401C8A4981F84E00A7A0FCF711FE8648AD
:103610000078C0F30010217AC1F3001188422CD049
:10362000207A01098048008861F304107E490880EF
:10363000207AC0F3001080B105217C4890F84E201C
:103640004F3081544F3890F84E00401C774981F834
:103650004E009DA0FCF7ECFD0FE00621734890F8AA
:103660004E204F3081544F3890F84E00401C6F4927
:1036700081F84E009CA0FCF7DBFD6B480078C0F39E
:103680004010217AC1F3401188422CD0207A4109A0
:103690006548008861F3451063490880207AC0F3CB
:1036A000401080B10721614890F84E204F3081547E
:1036B0004F3890F84E00401C5C4981F84E0093A0B2
:1036C000FCF7B6FD0FE00821584890F84E204F3027
:1036D00081544F3890F84E00401C544981F84E00F8
:1036E00091A0FCF7A5FD50480088C0F3C0202189B7
:1036F000C1F3C02188422CD02089C10A4A480088E1
:1037000061F3CB20484908802089C0F3C02080B1F4
:103710000B21464890F84E204F3081544F3890F896
:103720004E00401C414981F84E0087A0FCF780FD07
:103730000FE00C213D4890F84E204F3081544F3817
:1037400090F84E00401C394981F84E0085A0FCF7E6
:103750006FFD35480088C0F300302189C1F3003186
:1037600088422CD02089010B2F48008861F30C304F
:103770002D4908802089C0F3003080B109212B48F1
:1037800090F84E204F3081544F3890F84E00401C36
:10379000264981F84E007BA0FCF74AFD0FE00A2184
:1037A000224890F84E204F3081544F3890F84E0008
:1037B000401C1E4981F84E0079A0FCF739FD0D210F
:1037C0001A4890F84E204F3081544F3890F84E00F0
:1037D000401C164981F84E002089C0F3022081F870
:1037E0008900084690F8891074A0FCF721FD02209A
:1037F0000E49087000206FE667697A50726F746F27
:10380000636F6C4D6F64756C655374617475732070
:103810004572726F72202C20496C6C6567616C2058
:10382000506172616D0A00002A00002044050020EA
:103830004F6E426F617264696E673A20536F6674AF
:103840004150206F7220576562206D6F64650A00D9
:103850004F6E426F617264696E673A204169724CC3
:10386000696E6B206D6F64650A0000004F6E426FD9
:10387000617264696E673A2053746174696F6E2077
:103880006D6F64650A0000005769466920737461B2
:103890007475733A20696E2062696E64696E672080
:1038A0006D6F64650A000000576946692073746192
:1038B0007475733A206F75742062696E64696E67FF
:1038C000206D6F64650A0000576946692073746152
:1038D0007475733A20636F6E6E65637465642072ED
:1038E0006F757465720A00005769466920737461C8
:1038F0007475733A20646973636F6E6E6563746583
:103900006420726F757465720A0000005769466919
:10391000207374617475733A20636F6E6E6563749F
:103920006564206D326D0A005769466920737461C1
:103930007475733A20646973636F6E6E6563746542
:1039400064206D326D0A0000576946692073746106
:103950007475733A2061707020636F6E6E65637466
:103960000A00000057694669207374617475733AE0
:10397000206E6F2061707020636F6E6E6563740AD5
:103980000000000057694669207374617475733ACA
:1039900020696E2074657374206D6F64650A000081
:1039A00057694669207374617475733A206F757432
:1039B0002074657374206D6F64650A005253534917
:1039C000206973202564200A0000000070B50446B9
:1039D00025462CB919A0FCF72BFC4FF0FF3070BD29
:1039E0001C48A9680160E9684160298A0181A97CB5
:1039F0008172A0F18A01B1F88A00FFF795FA1549A2
:103A00008A39A1F88A00D1F89100FFF78DF91149A0
:103A10008A39C1F891000E210E488A3890F8612049
:103A200062308154623890F86100401C09498A393B
:103A300081F86100042008700020D0E74552524F01
:103A4000523A204E545020697320656D707479206D
:103A50000A000000CE05002010B5FFF773F90446F8
:103A600000BFFFF76FF9001BB0F5167FF9D900F022
:103A700073FE10BD10B500240E4890F8260000B962
:103A800010BD0DA0FCF7D4FB0A48B0F83510273064
:103A900001F08EF904460748B0F83500A04202D084
:103AA0000DA0FCF7C5FBFFF74DF90249C1F837003F
:103AB00000BFE5E7440500205761726E696E673A02
:103AC0002074696D656F75742C20726573656E6402
:103AD0002064617461200A004552524F523A2072AC
:103AE0006573656E642064617461206572726F72C3
:103AF0000A0000002DE9F04104460D46002700268B
:103B000004B135B9294608A0FCF792FB0020BDE8B6
:103B1000F081022603E0A05D3844C7B2761C681E1F
:103B2000B042F8D83846F2E74552524F523A206731
:103B3000697A50726F746F636F6C53756D202C20AF
:103B400062756620697320656D707479206F7220CC
:103B50006C656E206572726F72202564200A000009
:103B600070B504460D462CB90FA0FCF761FB4FF071
:103B7000FF3070BD16211248FCF7DDFC2A462146B5
:103B80000F48801CFCF760FC0D482538A0F8355024
:103B9000012180F82610FFF7D5F809492539C1F829
:103BA00037000020E5E700004552524F523A2064AA
:103BB00061746120697320656D707479200A00005A
:103BC0006905002070B50446094D2CB909A0FCF721
:103BD0002FFB4FF0FF3070BD2879401C21798842BF
:103BE00004D116210248801EFCF7A5FC0020F2E754
:103BF0006B0500204552524F523A20646174612097
:103C0000697320656D707479200A000070B50446F0
:103C10000D46002624B90AA0FCF70AFB701E70BDF1
:103C20002A4621460F4800F06FFF0646AE4205D0F7
:103C30000DA0FCF7FDFA4FF0FF30F0E73046EEE75D
:103C40004552524F523A2067697A507574446174F4
:103C5000612062756620697320656D707479200A31
:103C600000000000D90500204552524F523A20462C
:103C700061696C656420746F207262577269746543
:103C8000200A00002DE9FF4105460E461746002494
:103C900036B91EA0FCF7CCFA601E04B0BDE8F08176
:103CA0006846FFF7E1FA05208DF80400214890F8F6
:103CB0002110D0F82100401C1E4AC2F82100C8B2D1
:103CC0008DF805008DF808500920FFF72DF9ADF8A3
:103CD00002003A4631460DF10900FCF7B5FB0D2113
:103CE0006846FFF707FF8DF80C000D21684601F0CC
:103CF0005FF80446002C03DA21460FA0FCF798FA7F
:103D00000D216846FFF72CFF2046C6E767697A5207
:103D100065706F727444617461204572726F7220B5
:103D20002C20496C6C6567616C20506172616D0A72
:103D300000000000440500204552524F523A2075C1
:103D4000617274207772697465206572726F722077
:103D50002564200A0000000002480068401C014958
:103D6000086070471C00002010B50346002002FBCD
:103D7000031010BD10B503460020541AB4FBF3F035
:103D800010BD00002DE9FF5F06460D464FF000080C
:103D90002F46A9462C4606B125B94FF0FF3004B096
:103DA000BDE8F09F4FF00008CAE0701C10F8080052
:103DB00012286ED2DFE800F09D9E9FBEBEA0A1A299
:103DC000A3BEBEBEBEA4AEAA093038785F49087053
:103DD000084600785E4908705C4801785DA0FCF7F1
:103DE00027FA5A48007801280AD1614908600C2353
:103DF00060A219464E20FEF711F9FEF719F80AE005
:103E000000205B4908600C235BA219464E20FEF798
:103E100005F9FEF70DF88EE0D7F801004B49C1F81F
:103E200001000846D0F80100143800EB8000400083
:103E3000474948604548D0F8011050A0FCF7F8F910
:103E400043484068002808DD01200C232B2218215C
:103E500000903620FEF712F813E03D48406840B964
:103E600001200C232022182100903620FEF706F8AE
:103E700007E001200C232D22182100903620FDF7A9
:103E8000FDFF3348D0F804A0BAF1000F02DB504622
:103E900002E04FE0CAF100000A2190FBF1FB0C2088
:103EA00003235A46182100903C20FEF76DF80120AC
:103EB0000C232E22182100904E20FDF7DFFF24480E
:103EC000D0F804A0BAF1000F01DB504601E0CAF1BE
:103ED00000000A2190FBF1F201FB120B0C200123E0
:103EE0005A46182100905420FEF74EF8FDF7A0FF27
:103EF00021E020E01FE01EE01DE01CE01BE01AE0D6
:103F000099F8001023A0FCF793F914E024A0FCF723
:103F10008FF910E0D4F80700A17962792379CDE90F
:103F20000032CDE90210E378A278218821A0FCF7C5
:103F30007FF900E000BF00BF08F1010000F0FF08BA
:103F4000307840453FF731AF002028E72C000020B3
:103F5000300500204576743A204556454E545F445E
:103F600065766963654F6E4F6666202564200A009A
:103F7000808123424F4E20004F4646004576743ADA
:103F80004556454E545F54656D70536574202564E5
:103F90000A000000525353492025640A0000000023
:103FA0005452414E53504152454E545F4441544146
:103FB000200A0000574946495F4E5450203A205B82
:103FC00025642D25642D256420253032643A253062
:103FD00032643A253032645D5B25645D200A00005E
:103FE00070B58AB00446002500200290019000269A
:103FF0002CB96CA0FCF71CF9681E0AB070BDFEF766
:10400000A7FE02AA71497248FFF75AF80546002D2B
:104010006BD170A0FCF70CF96C4E30790D2832D0C2
:104020000EDC07282BD006DC012816D0032818D078
:10403000062851D12EE00A282DD00C284CD12BE097
:10404000142838D004DC0F282BD0112844D131E0BB
:10405000162822D018283FD134E03046FEF770FFF2
:1040600042E001AB03AABDF808105848FFF7A4F9D5
:1040700020B903A93046019AFFF71EF934E0304613
:10408000FEF7ACFE30E03046FEF7A8FE3046FFF704
:104090001BFA29E000BF00BF00BF3046FFF792FDCA
:1040A00022E03046FEF79AFE4FA0FCF7C1F8FFF77A
:1040B000D3FC19E018E03046FFF784FD4FA0FCF771
:1040C000B7F811E03046FFF77DFD3046FFF77EFC84
:1040D00052A0FCF7ADF807E002213046FEF7D0FE13
:1040E00054A0FCF7A5F800BF0DE015F1020F0AD1AE
:1040F000364E01213046FEF7C3FE54A0FCF798F877
:104100006FF0010079E73148401E0078012806D0A1
:10411000022814D0032822D004283CD12BE0002010
:104120002A49491E087009227431A1F13900FFF7AC
:1041300029FE132125483A30FCF7FDF92BE0002039
:104140002249491E087001228931A1F13B00FFF785
:1041500019FE13211D484D30FCF7EDF91BE000203E
:104160001A49491E08700846D0F81D200F313B300F
:10417000FFF708FE0FE000201449491E08700B22CB
:104180008A31A1F12900FFF7FDFD13210F486030AE
:10419000FCF7D1F900BF00BF2046FEF76BFD002001
:1041A0002BE7000047697A7769747348616E646C25
:1041B00065204572726F72202C20496C6C656761B6
:1041C0006C20506172616D0A0000000045050020FE
:1041D000D9050020476574204F6E65205061636BE0
:1041E0006574210A000000007265706F72743A4DA8
:1041F0004355207265626F6F74210A0041636B2022
:1042000050524F44554354494F4E5F4D4F44452003
:1042100073756363657373200A00000041636B204C
:104220004745545F55545420737563636573732019
:104230000A0000004552524F523A20636D642063D9
:104240006F6465206572726F72210A004552524F89
:10425000523A20636865636B2073756D20657272D6
:104260006F72210A0000000010B51C20054908608B
:104270000548C860084600F0B7FB95210348FCF7E5
:104280005AF910BDD9050020E90500204405002099
:1042900030B587B005460024052D7CD2DFE805F057
:1042A00003305F90BD0001A8FEF7DEFF0B208DF804
:1042B0000800744890F82110D0F82100401C714A81
:1042C000C2F82100C8B28DF809000520FEF72CFEC7
:1042D000ADF80600092101A8FFF70CFC8DF80C00D1
:1042E000092101A800F064FD0446002C03DA2146F0
:1042F00065A0FBF79DFF092101A8FFF731FCBDE098
:1043000004A8FEF7B1FF09208DF814005D4890F86D
:104310002110D0F82100401C5A4AC2F82100C8B22E
:104320008DF815008DF818500620FEF7FDFDADF84C
:1043300012000A2104A8FFF7DDFB8DF819000A21FD
:1043400004A800F035FD0446002C03DA21464EA0F7
:10435000FBF76EFF0A2104A8FFF702FC8EE004A819
:10436000FEF782FF09208DF81400464890F82110CE
:10437000D0F82100401C434AC2F82100C8B28DF891
:1043800015008DF818500620FEF7CEFDADF812008E
:104390000A2104A800E06DE0FFF7ACFB8DF81900DE
:1043A0000A2104A800F004FD0446002C03DA21468B
:1043B00035A0FBF73DFF0A2104A8FFF7D1FB5DE024
:1043C00001A8FEF751FF13208DF808002D4890F842
:1043D0002110D0F82100401C2A4AC2F82100C8B29E
:1043E0008DF809000520FEF79FFDADF806000921B4
:1043F00001A8FFF77FFB8DF80C00092101A800F050
:10440000D7FC0446002C03DA21461FA0FBF710FF5F
:10441000092101A8FFF7A4FB30E001A8FEF724FF63
:1044200015208DF80800174890F82110D0F82100C9
:10443000401C144AC2F82100C8B28DF809000520BA
:10444000FEF772FDADF80600092101A8FFF752FB47
:104450008DF80C00092101A800F0AAFC0446002CEC
:1044600003DA214608A0FBF7E3FE092101A8FFF7C4
:1044700077FB03E00CA0FBF7DBFE00BF00BF20468C
:1044800007B030BD440500204552524F523A2075C6
:10449000617274207772697465206572726F722020
:1044A0002564200A000000004552524F523A204332
:1044B00066674D6F6465206572726F72210A000035
:1044C00008B54FF4E131482000F09EFC4820FEF78B
:1044D00025F9FDF703FBFDF72BFAFDF7D7FBFDF7F9
:1044E0000DFA00F04BF9142000F0D0F90C2365A26E
:1044F00000210846FDF792FD0C2365A21946002015
:10450000FDF78CFD0C2366A218210020FDF786FD27
:104510000C2366A224210020FDF780FD0C2366A257
:1045200030215420FDF77AFDFDF782FC002064491C
:1045300008600AE00C2363A230210020FDF76EFD25
:10454000FDF776FCC820FEF709F9FDF777F800289B
:10455000F0D10C235EA23021FDF760FDFDF768FC71
:104560005EA0FBF765FE64A0FBF762FE69A0FBF7A7
:104570005FFE6FA0FBF75CFE58A0FBF759FEFDF74E
:1045800017F87249C8604FF47A70FEF7E7F8FDF744
:104590000FF86E49C86073E0FDF752FAFDF708F8AE
:1045A0006A49886008468068002808DD01200C23DD
:1045B0002B22242100903620FDF760FC13E0634895
:1045C000806840B901200C2320222421009036204D
:1045D000FDF754FC07E001200C232D22242100903C
:1045E0003620FDF74BFC594880680A2190FBF1F515
:1045F0000C200090002D01DB284600E068420246B6
:10460000032324213C20FDF7BFFC01200C232E2294
:10461000242100904E20FDF731FC4C4880680A218F
:1046200090FBF1F201FB12050C2001232A46242104
:1046300000905420FDF7A8FCFDF7FAFB4348806882
:104640000A2190FBF1F014304149C1F805000846F9
:10465000FFF7C6FC0120FEF781F8601CC4B23220CF
:1046600094FBF0F100FB114050B9962C00D10024CE
:104670003848006808B9012000E00020354908608A
:104680008AE70000574946495F4D4F44453A0000CC
:104690004465766963654F6E4F66663A00000000B8
:1046A00054656D705365743A0000000054656D7078
:1046B0004E6F773A00000000404E4A465500000019
:1046C0008401214244533138423230204572720015
:1046D00044533138423230204F4B20002A2A2A2AB4
:1046E0002A2A2A2A2A2A2A2A2A2A2A2A2A2A2A2A2A
:1046F0002A2A2A2A0D0A00002A20202020D6C7C4F0
:10470000DCCEC2BFD8CFB5CDB32020202020202AB8
:104710000D0A00002A2020202020202020204E4AA0
:1047200046552020202020202020202A0D0A00008D
:104730002A202020202020202020544553542020AF
:10474000202020202020202A0D0A000030050020F3
:104750002C0000209481214210B5FDF7E7F8FDF709
:1047600049FD10BD10B50246012000E050430B1E6C
:10477000A1F10104E1B2F9D110BD000000B589B08A
:1047800001210846FDF79EFC01218020FDF7AAFCCF
:1047900001210820FDF7A6FC01210520FDF7A2FC60
:1047A0000220ADF8200010208DF8230003208DF8A2
:1047B000220008A92E48FDF712F84020ADF820008D
:1047C00010208DF8230003208DF8220008A9294825
:1047D000FDF705F80020284908600F20ADF82000FB
:1047E00010208DF8230003208DF8220008A923480B
:1047F000FCF7F5FF00202249C1F880012020ADF828
:10480000200010208DF8230003208DF8220008A935
:104810001C48FCF7E4FF00201B49086040F2E73029
:10482000ADF818004720ADF814000020ADF81A00CC
:10483000ADF8160005A94FF08040FDF753FE60204B
:10484000ADF804000120ADF806000020ADF80C0022
:1048500001A94FF08040FDF7E3FD0821C806FDF7F0
:1048600031FE01218807FDF7B5FD09B000BD00004C
:1048700000080140000C014098812142001C0140C9
:104880000080234200180140940123423EB50446B3
:1048900004EB84000121C1EB400085B22020FDF72C
:1048A00011FCADF8045041F61F40ADF800000020A7
:1048B000ADF806001020ADF8020069461148FDF77A
:1048C00011FE01210F48FDF77FFD012211460D4821
:1048D000FDF79DFD01210B48FDF77CFD02233722EA
:1048E00000211846FDF732F9074808490860002002
:1048F000486088600649086048608860054908602B
:104900003EBD0000001400400AD7A33C0005002073
:104910000C0500201800002010B504462CB90EA08C
:10492000FBF786FC4FF0FF3010BD6068A16888423D
:1049300001D10020F8E76068A168884203D2A0682E
:104940006168401AF0E7204600F034F86168A26818
:10495000891A401AE8E700004552524F523A20693E
:104960006E707574207262206973204E554C4C0A2B
:104970000000000070B504462CB907A0FBF758FCF6
:104980004FF0FF3070BD204600F014F80546204679
:10499000FFF7C2FF281AF5E74552524F523A2069F5
:1049A0006E707574207262206973204E554C4C0AEB
:1049B0000000000010B504462CB904A0FBF738FC39
:1049C0004FF0FF3010BD2068FCE700004552524F09
:1049D000523A20696E707574207262206973204E9D
:1049E000554C4C0A0000000010B504461CB905A047
:1049F000FBF71EFC10BDE0686060E068A06000BFCF
:104A0000F8E700004552524F523A20696E707574B3
:104A1000207262206973204E554C4C0A0000000041
:104A20002DE9F04104460F46164600252CB928A072
:104A3000FBF7FEFB681EBDE8F0812FB92BA0FBF74A
:104A4000F7FB4FF0FF30F6E76068A168884214D2A8
:104A50002046FFF761FFB04201D9304602E0204610
:104A6000FFF75AFF054661682A463846FBF7ECFC1B
:104A70006068284460602846DDE72046FFF79AFF1B
:104A80006168E268891A401AB0420AD935466168FD
:104A90002A463846FBF7D8FC606828446060284600
:104AA000C9E72046FFF786FF6168E268891A451A60
:104AB00061682A463846FBF7C7FCE0686060721BF5
:104AC00079192046FFF7ACFF05442846B3E70000FC
:104AD0004552524F523A20696E70757420726220AE
:104AE0006973204E554C4C0A000000004552524F4D
:104AF000523A20696E707574206461746120697324
:104B0000204E554C4C0A00002DE9F04104460F465A
:104B1000154600262CB92BA0FBF78AFB701EBDE8BA
:104B2000F0812FB92DA0FBF783FB4FF0FF30F6E7A4
:104B30002046FFF71FFFA8420AD82046FFF71AFFBA
:104B4000804641462BA0FBF773FB4FF0FF30E6E7B2
:104B50006068A16888422AD82046FFF72BFFA16829
:104B6000E268891A461AB54213D8A0682A4639461F
:104B7000FBF76AFCA0682844A0602046FFF71AFFF4
:104B8000E1680844A168884201D1E068A060284635
:104B9000C5E7A06832463946FBF756FCE068A060DE
:104BA000AA1BB9192046FFF7AFFF3044B7E7A0684A
:104BB0002A463946FBF748FCA0682844A0602846EE
:104BC000ADE700004552524F523A2072622069739D
:104BD00020656D707479200A000000004552524F24
:104BE000523A206461746120697320656D70747934
:104BF000200A00004552524F523A206E6F206D65D8
:104C00006D6F7279202564200A00000070B54C4851
:104C100040684B49C968884244DD4948007801280A
:104C200040D1474840684649896888423ADD45494D
:104C30004548006800F0FAFC044600F0ABFC43492C
:104C4000088001218807FDF7C5FB02204049088044
:104C50001820C8703F48FCF7C2FD3C4801884FF05F
:104C60008040FDF73CFC00203B4908603448406828
:104C700033490969884215D0314840683049086194
:104C800036A0FBF7D5FA3048006800F033FB044645
:104C900022460B4634A0FBF7CBFA2C48018838A0FB
:104CA000FBF7C6FA264840682549C96888422FDACA
:104CB0002348007801282BD1214840682049896881
:104CC00088423CDA00203349086000214FF08040E0
:104CD000FDF780FB02201E4908801020C8701D4887
:104CE000FCF77DFD02211B48FCF704FE01202A4948
:104CF000C1F89801124840681149096988421ED0DC
:104D00000F4840680E49086124A0FBF791FA16E0AD
:104D100000214FF08040FDF75DFB02200C49088028
:104D20001020C8700B48FCF75AFD02210948FCF717
:104D3000E1FD0020084908601B49C1F8940170BDDD
:104D40003005002000C07944180000201000002029
:104D50001200002000080140988121420ABCD3C8FB
:104D6000C8C4A3CABD0A00007761726D696E67206E
:104D70006672657175656E6379202566200A00008C
:104D80007761726D696E6720636372202564200A03
:104D90000000000094012342008021420AD6C6C0D0
:104DA000E4C4A3CABD0A000000002342704700000B
:104DB00010B502460B4600210AB9481E10BD00215D
:104DC0001BE0505C0F4C208000BF0E48001F008885
:104DD00000F040000028F8D002290DD3505CFF28D5
:104DE0000AD15520074C208000BF0648001F0088CC
:104DF00000F040000028F8D0491C9942E1D3184641
:104E0000DCE70000044800402DE9F05F05460E464F
:104E1000300100F0F7FB81462E4905FB01F000F060
:104E2000F1FB8246494600F0F3FA0746384600F0A7
:104E3000B1FB84B2204600F0E5FB8346394600F022
:104E4000C1FC82464FF0834100F0F0FB814600F048
:104E5000A1FB80464FF6FF7000EA041404EB080043
:104E600084B21D48806940F004001B4988610846EF
:104E7000806940F4804088611848006820F47F60B1
:104E8000164908600846006840F40B600860124844
:104E9000C06840F480401049C8600846C06820F4EB
:104EA0008040C8600E480480001D008842F20C015A
:104EB00008430B49091D08800846008840F020007F
:104EC00008800223252203210846FCF73FFEBDE8A7
:104ED000F09F000040420F00001002400408014013
:104EE0000838014070B505460C461D48806940F001
:104EF00008001B4988611B48006820F47F4019495D
:104F000008600846006840F40B4008601448C06917
:104F100040F480201249C8610846006940F48020AE
:104F200008610846006920F4802008610E48684343
:104F3000B0FBF4F00D490880081D008842F20C0116
:104F400008430A49091D08800846008840F02000EF
:104F500008800223272219460120FCF7F7FD70BDC7
:104F600000100240040C014040420F00084800407D
:104F700010B500290AD00878002807D005487844E1
:104F8000FBF7E6FE002801D0002010BD024878445F
:104F900010BD0000122200000A220000491058BF74
:104FA000C1F140415B1058BFC3F140438B42EFF366
:104FB000008070474FEA41034FEA5353A3F58063E3
:104FC000D3F11E03C8BFD3F1210C0CDD4FF000421A
:104FD00042EAC12242EA505232FA03FC8CEAE17CF6
:104FE000ACEBE1707047102BC4BF0020704703F595
:104FF000787CBCF1FF3F04D06FF0004282EA2100D0
:10500000704770B500F0ECF849922480002070479A
:10501000F2E7000051EA030C17D41CF5801F58BFBB
:10502000BCF5801F00F10680994218BF704708BF89
:105030009042704707D711F5801F58BF13F5801FA6
:1050400019D499427047894270471CF5801F08D5D2
:10505000BCF5801FF7D58B4218BF704708BF82424E
:1050600070474FF4001C1CEB410F38BF1CEB430F83
:1050700001D28B42704770B500F0B2F8922449001B
:105080004FF000514FF08053FFF788BFDFF848C161
:1050900070B51CEA111E1EBF1CEA13159EEA0C0F08
:1050A00095EA0C0F00F06F8081EA030423EA4C13A9
:1050B0004EEAD47E21EA4C1141F4801143F480136E
:1050C000AE44A1FB024CA0FB0365AEF17F7E361916
:1050D00055EB0C05A1FB034C4CF10003A0FB021C9B
:1050E00016EB0C06654153F10003094218BF46F068
:1050F000010613F4007F0BD14FEA03314FEA05306C
:10510000340341EA155140EA16506FF003020AE0F9
:105110004FEAC3214FEAC520F40241EA555140EA63
:1051200056506FF0020202EB2E4201EB025585EA67
:10513000CE710AD05FEA440C18BF24F0004450F14D
:10514000000041F1000120EAD47040F2FE7C62458B
:1051500000D270BDA84214BF4FF080444FF04044CD
:10516000002E08BF0024BEF1806FA8BFA1F1C0418E
:10517000BDE8704080F282804FF0000001F1C04134
:1051800001F0004170479EEA0C0F0CEA131518BF9E
:1051900095EA0C0F06D04FF0000081EA030E0EF0E6
:1051A000004170BD00F01CF88900013E00F007B816
:1051B00000F009B84FEA430C5FEA5C5C08D081EA72
:1051C000030100F05BB84FEA410C5FEA5C5CF6D18A
:1051D0004FF00000014970470000FF070000F87F12
:1051E0000EF1020E2EF0030E5EF8046B364205D46B
:1051F000012A43EB030515F5001F12D8012841EBE6
:10520000010C1CF5001F0CD80ED14FEAD17C15F50E
:10521000001F0CEB4C0C0CF1020C08BF4CEBD37CC8
:1052200004E04FF0080C01E04FEAD37C0CEB4C0596
:1052300026FA05F606F00706B6F1040C06D20EEBC8
:10524000860CBDE870404CF0010C6047DFE80CF0C4
:10525000090B02024FF000414FF00000A1F50021C0
:1052600070BD19461046012851EB010418BFD4F552
:10527000001484BF002001F0004170BD0808A0F5B3
:1052800000114FEA3101704753EA010C17D41CF5A5
:10529000801F58BFBCF5801F00F106808B4218BFED
:1052A000704708BF8242704707D713F5801F58BF69
:1052B00011F5801F19D48B4270479B4270471CF533
:1052C000801F08D5BCF5801FF7D5994218BF7047DD
:1052D00008BF904270474FF4001C1CEB430F38BFCF
:1052E0001CEB410F01D2994270470FB40CBC03BCB8
:1052F000FFF7C1BE43004FEAD30C4FEA3C0C4340DA
:105300001FBF40070CF1605113F0FE4F70471CF0B7
:10531000006F03D100200CF0004170470CF00043F7
:1053200043EA507010B540EACC0000F000FA00BF2C
:10533000000000924FEA0001FFF7A0BF4FF00041CC
:105340004FF00000A1F500217047000090EA010F26
:1053500048BF81F0004100F14682421A3CBF801AEA
:1053600089184FEAD0524FF07F4C1CEA410FA2EB54
:10537000D15318BF9CEA026F00F03B804FF0004C05
:105380004CEA00204CEA012121FA03FC10EB0C0C42
:105390001ED202F1FF325FEA1C2040EBC25038BF40
:1053A00070471CF07F0F4FEA400C18BFBCF17F4FD5
:1053B00038BF7047C3F12003994008BF20F00100B7
:1053C000BCF17F4F38BF7047A0F1C04000F0F5B985
:1053D0004FEA3C00000A40EBC25028BF1CF0FF0F10
:1053E0004FEA400CE6D018BFBCF17F4F38BF704782
:1053F000EAE79CEA026F05D010EA5C0F08BF00F0F4
:105400000040704710B500F092F900BF64FBBE3E4B
:105410004FF47F0C1CEAD0121EBF1CEAD11392EA93
:105420000C0F93EA0C0F00F0858090EA010F48BF43
:1054300042F4807240F4000C41F400002CF07F41F3
:1054400020F07F4000B58142A2EB03020FF2081C5E
:10545000ACEB504EC0F100009EF800E04FEA4E0E5B
:1054600000FB0EFC38BF49004FEA2C1C02F5FA0283
:105470000CFB0EF34FEACE1E4FEA112C4FEAC1216E
:105480000EEB635E42EB22420EFB0CFC4FEA1C5318
:1054900000FB03114FEA112C4FEA01310EFB0CFC0B
:1054A0004FEADC4C00FB0C11C14228BF09184CEB41
:1054B00003335DF804EB10EB410143EBC250B2F54E
:1054C0007C0F38BF704729D512F0F00F1CBF00F1D8
:1054D000C04000F000407047008182838485868749
:1054E00088898B8C8D8E8F919293959697999A9CA3
:1054F0009D9FA0A2A3A5A7A8AAACAEB0B2B3B5B712
:10550000B9BCBEC0C2C5C7C9CCCED1D4D7D9DCDFE7
:10551000E2E6E9ECF0F3F7FAFE0000004FEA400C97
:105520000CF1807CBCF17E4F28BF7047B0F1C040C9
:1055300000F043B990EA010F0CEAD11348BF42F4DE
:105540008072624538BF634507D213F47F0F16D0CF
:1055500080EA010000F00040704710B500F0E7F865
:10556000097EFC3E00F005B880EA010000F0004032
:10557000704780EA010000F0004000F01EB912F40C
:105580007F0F04BF0248704780EA010000F015B9A0
:105590000000C07FC10DD1F19E0206DB4FEA00235F
:1055A00043F0004323FA02F07047004207D54FEA68
:1055B0004001B1F1FE4F02D24FF00000704710B52C
:1055C00000F0B5F849922480002070476FEA20006F
:1055D0007047000010F0004148BF4042B0FA80F32D
:1055E00010FA03F2C3F19D030BD051EAC35101EB52
:1055F0001220530638BF704700F1010008BF20F0A9
:1056000001007047B0FA80F310FA03F2C3F19D0372
:105610000AD0D90501EB1220530638BF704700F1BC
:10562000010008BF20F00100704700004FF47F0C1C
:105630001CEAD0121EBF1CEAD11392EA0C0F93EAA7
:105640000C0F00F0478090EA010F48BF42F48072CF
:105650004FF0004C4CEA00204CEA012102EB03021F
:10566000A0FB0113A2F50002002918BF43F00103BB
:105670005B0028BF4FEA330342EB22425FEA132C60
:105680004CEBC2502EBFBCEB436FB2F57C0F7047A2
:105690004FEA036CBCF1004F08BF20F00100B2F5E7
:1056A0007C0F38BF70470BD582F0FF0212F5803FA8
:1056B000C8BF704700F1C040D8BF00F0004070473D
:1056C00000F5000C5FEA4C0C48BF7047B0F1C040D9
:1056D00000F073B890EA010F0CEAD11348BF42F40E
:1056E0008072624538BF634504D280EA010000F051
:1056F0000040704710B500F01AF800BF8900013E65
:1057000000F007B800F009B85FEA410C5FEA1C6CD2
:1057100008D080EA010000F050B85FEA400C5FEA70
:105720001C6CF6D14FF00040A0F5800070470EF1E0
:10573000020E2EF0030E5EF8044B244204D44FEA0E
:105740004102B2F17F4F11D84FEA4003B3F17F4FCE
:105750000CD80ED14FEAD07CB2F17F4F0CEB4C0C41
:105760000CF1020C08BF4CEBD17C04E04FF0080CAC
:1057700001E04FEAD17C0CEB4C0324FA03F404F073
:105780000704B4F1040C06D20EEB840CBDE8104003
:105790004CF0010C6047DFE80CF0070802024FF004
:1057A0000040A0F5800010BD0846420018BFD2F1AD
:1057B000807288BF00F0004010BDFF2141EAD05048
:1057C000C005704780F0004090EA010F7FF5C5AD3D
:1057D00081F0004100F007B890EA010F48BF81F066
:1057E00000413FF5BAAD421A04D882F00042A0EB66
:1057F000020011444FEAD0524FF07F4C1CEA410F97
:10580000A2EBD15318BF9CEA026F4AD04FF0004C74
:105810004CEA00204CEA012121FA03FCB0EB0C0C0D
:105820000FD412F0FE0F36D05FEA4C001DD50012E7
:1058300040EBC25038BF70471CF03F0F18BF704795
:105840000BE0A2F101025FEA1C2040EBC25038BF1E
:1058500070471CF07F0F18BF7047C3F120039940B9
:1058600014BF401E20F00100704780084FEA122349
:1058700008BF7047B0FA80FCA2EB0C02CCF1280CF8
:1058800060FA0CF093EA122F04BF00EBC25070478D
:105890004FEAC3707047130A5FEADC1008BF704715
:1058A000F6E79CEA026F04D010EA5C0F08BF002004
:1058B000704710B5FFF73BFF40DFF63E81F0004038
:1058C0007047FAF78EBF00000000000000000000E3
:1058D0000000000000003F40000000000000000049
:1058E0003000400030004000000009000BC03D00C7
:1058F0000BC03D00090018C024407FE022403180E9
:105900000000180024C01B000D803240018003807D
:105910001C4027401C800740004010006000000031
:105920000000000000000000000000001F80204078
:1059300040200000402020401F800000000009009F
:1059400006001F80060009000000040004003F80DC
:1059500004000400000000100060000000000000CF
:105960000000040004000400040004000000000023
:1059700000400000000000000000002001C0060000
:105980003800400000001F802040204020401F8041
:105990000000000010403FC000400000000018C0A0
:1059A0002140224024401840000010802040244024
:1059B00024401B80000002000D0011003FC0014088
:1059C00000003C80244024402440238000001F80AD
:1059D000244024403440038000003000200027C0D1
:1059E0003800200000001B802440244024401B80FD
:1059F00000001C0022C0224022401F800000000046
:105A000000000840000000000000000000000460EA
:105A1000000000000000000004000A0011002080C7
:105A200040400900090009000900090000000000C9
:105A30004040208011000A0004001800200023408C
:105A40002400180000001F802040274029401F40EC
:105A50000000004007C039000F0001C00040204096
:105A60003FC0244024401B8000001F802040204075
:105A700020403080000020403FC0204020401F8058
:105A8000000020403FC024402E4030C00000204095
:105A90003FC024402E00300000000F001080204046
:105AA00022403380020020403FC0040004003FC079
:105AB0002040204020403FC02040204000000060A7
:105AC000202020203FC02000200020403FC0244054
:105AD0000B0030C0204020403FC02040004000402C
